:100000000C942A000C9434000C9434000C943400AA
:100010000C9434000C9434000C9434000C94340090
:100020000C9434000C9434000C9434000C94340080
:100030000C9434000C9434000C9434000C94340070
:100040000C9434000C9434000C9434000C94340060
:100050000C94340011241FBECFE5D8E0DEBFCDBF25
:100060000E94CE010C94FF010C940000843008F033
:10007000EEC0683008F0EDC0813009F440C038F0BF
:10008000823009F474C0833009F4A9C0E4C041305F
:1000900091F018F0423011F1E0C081E090E002C030
:1000A000880F991F6A95E2F72AB3822B9AB3892B9E
:1000B0008ABB80E008952AB381E090E002C0880FF7
:1000C000991F6A95E2F7382F309523232ABB2BB36B
:1000D000822B9BB3892B8BBB80E008952AB381E0F0
:1000E00090E002C0880F991F6A95E2F78095922FE1
:1000F00098239ABB9BB389238BBB80E00895413042
:1001000091F018F0423011F1AAC081E090E002C0F5
:10011000880F991F6A95E2F727B3822B97B3892B33
:1001200087BB80E0089527B381E090E002C0880F8C
:10013000991F6A95E2F7382F3095232327BB28B300
:10014000822B98B3892B88BB80E0089527B381E088
:1001500090E002C0880F991F6A95E2F78095922F70
:10016000982397BB98B3892388BB80E008954130DA
:1001700091F018F0423011F174C081E090E002C0BB
:10018000880F991F6A95E2F724B3822B94B3892BC9
:1001900084BB80E0089524B381E090E002C0880F22
:1001A000991F6A95E2F7382F3095232324BB25B396
:1001B000822B95B3892B85BB80E0089524B381E021
:1001C00090E002C0880F991F6A95E2F78095922F00
:1001D000982394BB95B3892385BB80E00895413073
:1001E00091F018F0423011F13EC081E090E002C081
:1001F000880F991F6A95E2F721B3822B91B3892B5F
:1002000081BB80E0089521B381E090E002C0880FB7
:10021000991F6A95E2F7382F3095232321BB22B32B
:10022000822B92B3892B82BB80E0089521B381E0B9
:1002300090E002C0880F991F6A95E2F78095922F8F
:10024000982391BB92B3892382BB80E0089581E01B
:10025000089581E0089580E0089580E0089580E0A9
:10026000089580E0089580E00895843008F08AC001
:10027000813041F138F0823009F444C0833009F410
:1002800061C082C0442319F0413071F07FC02BB3AC
:1002900081E090E002C0880F991F6A95E2F780958F
:1002A00082238BBB80E0089581E090E002C0880F3C
:1002B000991F6A95E2F72BB3822B9BB3892B8BBBDB
:1002C00080E00895442319F0413071F061C028B3F3
:1002D00081E090E002C0880F991F6A95E2F780954F
:1002E000822388BB80E0089581E090E002C0880FFF
:1002F000991F6A95E2F728B3822B98B3892B88BBA4
:1003000080E00895442319F0413071F043C025B3D3
:1003100081E090E002C0880F991F6A95E2F780950E
:10032000822385BB80E0089581E090E002C0880FC1
:10033000991F6A95E2F725B3822B95B3892B85BB6C
:1003400080E00895442319F0413071F025C022B3B4
:1003500081E090E002C0880F991F6A95E2F78095CE
:10036000822382BB80E0089581E090E002C0880F84
:10037000991F6A95E2F722B3822B92B3892B82BB35
:1003800080E0089581E0089580E0089580E0089578
:1003900080E0089580E0089580E0089540E061E005
:1003A00080E00E94360040E061E081E00E9436007B
:1003B00041E061E080E00E9435012FE38DE093E0B1
:1003C000215080409040E1F700C0000040E061E033
:1003D00080E00E94350141E061E081E00E9435014A
:1003E0002FE38DE093E0215080409040E1F700C082
:1003F000000040E061E080E00E943501D9CFF89430
:02040000FFCF2C
:00000001FF
