:100000000C942A000C9434000C9434000C943400AA
:100010000C9434000C9434000C9434000C94340090
:100020000C9434000C9434000C9434000C94340080
:100030000C9434000C9434000C9434000C94340070
:100040000C9434000C9434000C9434000C94340060
:100050000C94340011241FBECFE5D8E0DEBFCDBF25
:100060000E9477010C94B1010C940000843008F0D8
:10007000EEC0683008F0EDC0813009F440C038F0BF
:10008000823009F474C0833009F4A9C0E4C041305F
:1000900091F018F0423011F1E0C081E090E002C030
:1000A000880F991F6A95E2F72AB3822B9AB3892B9E
:1000B0008ABB81E008952AB381E090E002C0880FF6
:1000C000991F6A95E2F7382F309523232ABB2BB36B
:1000D000822B9BB3892B8BBB81E008952AB381E0EF
:1000E00090E002C0880F991F6A95E2F78095922FE1
:1000F00098239ABB9BB389238BBB81E00895413041
:1001000091F018F0423011F1AAC081E090E002C0F5
:10011000880F991F6A95E2F727B3822B97B3892B33
:1001200087BB81E0089527B381E090E002C0880F8B
:10013000991F6A95E2F7382F3095232327BB28B300
:10014000822B98B3892B88BB81E0089527B381E087
:1001500090E002C0880F991F6A95E2F78095922F70
:10016000982397BB98B3892388BB81E008954130D9
:1001700091F018F0423011F174C081E090E002C0BB
:10018000880F991F6A95E2F724B3822B94B3892BC9
:1001900084BB81E0089524B381E090E002C0880F21
:1001A000991F6A95E2F7382F3095232324BB25B396
:1001B000822B95B3892B85BB81E0089524B381E020
:1001C00090E002C0880F991F6A95E2F78095922F00
:1001D000982394BB95B3892385BB81E00895413072
:1001E00091F018F0423011F13EC081E090E002C081
:1001F000880F991F6A95E2F721B3822B91B3892B5F
:1002000081BB81E0089521B381E090E002C0880FB6
:10021000991F6A95E2F7382F3095232321BB22B32B
:10022000822B92B3892B82BB81E0089521B381E0B8
:1002300090E002C0880F991F6A95E2F78095922F8F
:10024000982391BB92B3892382BB81E0089580E01B
:10025000089580E0089581E0089581E0089581E0A7
:10026000089581E0089581E008958430D0F56830E4
:10027000D0F5813091F028F08230D9F0833029F127
:1002800034C089B390E002C0959587956A95E2F7EE
:100290008170FA01808381E0089586B390E002C006
:1002A000959587956A95E2F78170FA01808381E0E0
:1002B000089583B390E002C0959587956A95E2F71B
:1002C0008170FA01808381E0089580B390E002C0DC
:1002D000959587956A95E2F78170FA01808381E0B0
:1002E000089580E0089580E0089581E00895CF9317
:1002F000DF931F92CDB7DEB781E0898340E060E0F5
:1003000080E00E94360040E061E080E00E9436001C
:1003100040E062E080E00E94360040E063E080E080
:100320000E94360041E061E081E00E94360010E06A
:10033000AE014F5F5F4F61E081E00E94350189812E
:100340008111F6CF83E294EF0197F1F700C000002E
:1003500089818111EDCF103109F410E01F5F1BBBC3
:06036000E7CFF894FFCF87
:00000001FF
